:020000040800F2
:1000000000000220050300087503000875030008BE
:100010007503000875030008750300080000000060
:100020000000000000000000000000007503000850
:100030007503000800000000750300087503000840
:1000400075030008750300087503000875030008B0
:1000500075030008750300087503000875030008A0
:10006000750300087503000875030008D107000830
:10007000E5070008F90700080D0800082108000836
:1000800035080008490800087503000875030008D2
:100090007503000875030008750300087503000860
:1000A0007503000875030008750300087503000850
:1000B0007503000875030008750300087503000840
:1000C0007503000875030008750300087503000830
:1000D0007503000875030008750300087503000820
:1000E0007503000875030008750300087503000810
:1000F0007503000875030008750300085D08000813
:1001000075030008750300087503000875030008EF
:1001100075030008750300087503000875030008DF
:10012000710800088508000899080008AD08000853
:10013000C10800087503000875030008750300086E
:1001400075030008750300087503000875030008AF
:10015000D5080008E9080008FD0800087503000834
:10016000750300087503000875030008750300088F
:10017000750300087503000875030008750300087F
:08018000750300087503000877
:1001880010B5054C237833B9044B13B10448AFF3C9
:1001980000800123237010BD000000200000000033
:1001A8001009000808B5034B1BB103490348AFF316
:1001B800008008BD000000000400002010090008AD
:1001C80052F8043B40F8043B8842F9D3F746000054
:1001D800F1EE103A43F08073E1EE103A704700BF39
:1001E800024B13B1024800F005B870470000000048
:1001F80009020008002301461A46184600F01EB8F6
:1002080038B50A4C0A4D641BA4100AD004F1804387
:10021800013B05EB8305013C55F804399847002C50
:10022800F9D1BDE8384000F075BB00BF540900089B
:1002380050090008704700BF704700BF2DE9F84318
:100248002B4D0646286898460F469146FFF7F2FF61
:10025800284B1C68D4F84831002B3DD05A681F2A17
:100268000DDC02F1010C16BB0232C3F804C0286889
:1002780043F82270FFF7E0FF0020BDE8F8831E4B2B
:100288007BB34FF4C870AFF30080034648B3D4F88B
:1002980048210021C0E900214FF0010CC4F84801B1
:1002A8000A46C0F88811C0F88C11002EDCD003EB88
:1002B80082010124C1F88890D3F888019440204332
:1002C800022EC3F88801C1F80881CDD1D3F88C116A
:1002D8000C43C3F88C41C7E704F5A673C4F848314A
:1002E800BCE72868FFF7A8FF4FF0FF30C5E700BF5D
:1002F800680400202809000800000000DFF848D042
:1003080085B0BFF36F8F114811494FF0000201E02B
:1003180040F8042B8842FBD30E480F490F4AFFF7D9
:1003280053FF0F480F49104AFFF74EFF0649A1F146
:100338000400A0F10401016081F30988BFF36F8F05
:1003480000F0C0F800BE00000000022000000020FD
:100358004000002040000020B80600205409000892
:100368000000006000000060CC0F0008DEBEFFF750
:10037800FDBF80B483B000AF78607B685B681846C7
:100388000C37BD465DF8047B704780B483B000AF7E
:10039800786039607B689A683B681A437B689A6022
:1003A80000BF0C37BD465DF8047B704780B483B04E
:1003B80000AF78607B689B6818460C37BD465DF8CF
:1003C800047B704780B483B000AF7860012318467F
:1003D8000C37BD465DF8047B7047000080B582B0DD
:1003E80000AF786039600C4A7B681A607B6800222D
:1003F8009A607B683A685A607B685B68184600F0C8
:100408008FF87B685B685B684FF0FF329A607B68A7
:1004180018460837BD4680BD3409000880B584B049
:1004280000AFF860B96011461A460B46FB711346D7
:10043800BB71FB68B9681846FFF7D0FF064AFB682E
:100448001A60FB68FA791A73FB68BA795A73FB6801
:1004580018461037BD4680BD4009000890B583B0E6
:1004680000AF786039607B681846FFF79FFF044645
:100478007B681846FFF77DFF03465B683A682240B1
:100488009A61002318460C37BD4690BD90B583B0DD
:1004980000AF786039607B681846FFF787FF02462F
:1004A8003B6802EA03047B681846FFF762FF0346CD
:1004B8005B685A6962405A61002318460C37BD468A
:1004C80090BD000080B586B000AF381D0023002223
:1004D8001149FFF7A3FF3B1D4FF450411846FFF7A2
:1004E80054FF3B1D184600F041F83B1D4FF6FF71C5
:1004F8001846FFF7B3FF3B1D4FF6FF711846FFF78D
:10050800C5FF00237B617B69044A9342F3DC00BF8B
:100518007B6901337B61F6E76C040020FF70020001
:1005280080B487B000AF78607B681B7803F18043A4
:1005380003F50E337B617B685B78C3F30403DBB29E
:100548001A46012393403B617B691B683A69134053
:10055800FB607B691A683B691A437B691A60FB6810
:1005680018461C37BD465DF8047B704780B58CB0D3
:1005780000AF78600023FB620023BB6200237B622C
:1005880000233B620023FB610023BB617B681846A4
:10059800FFF7EFFE03465B683B617B681846FFF791
:1005A80005FF78617B681846FFF7E3FE03469A6803
:1005B8007B691340002B14BF01230023DBB2002BFF
:1005C80008D07B681846FFF7D4FE03469A687B6913
:1005D800134071E07B681846FFF7CBFE0346996825
:1005E8007A690A439A607B6903F00103002B2ED0D5
:1005F800BB695B00FB600122BB6902FA03F31A4680
:100608003B6A13433B620322FB6802FA03F31A4670
:10061800FB691343FB610122FB6802FA03F31A46E4
:10062800FB6A1343FB627B681B7B1A46BB6902FAB1
:1006380003F31A46BB6A1343BB627B685B7B1A46AB
:10064800FB6802FA03F31A467B6A13437B62BB69B1
:100658000133BB617B695B087B617B69002B00D040
:10066800C1E7FB69DB43FB613B6ADB433B623B69F8
:100678001A68FB691A403B691A603B695A683B6A09
:100688001A403B695A603B69DA68FB691A403B6962
:10069800DA603B691A68FB6A1A433B691A603B696E
:1006A8005A68BB6A1A433B695A603B69DA687B6AD5
:1006B8001A433B69DA60002318463037BD4680BDCF
:1006C80080B487B000AF78607B681B697B617B6909
:1006D80023F0FF033B613B691A467B681B7B13448D
:1006E800FB60FB681B687A68527BD34003F03D03CC
:1006F80018461C37BD465DF8047B704780B487B048
:1007080000AF786039607B681B697B617B6923F087
:10071800FF033B613B6908331A467B681B7B134424
:10072800FB603B6803F03D037A68527B03FA02F2F0
:10073800FB681A6000BF1C37BD465DF8047B704734
:1007480080B584B000AF78607868FFF7B9FFF860CB
:10075800FB6803F00103002B00D001BEFB6803F027
:100768000403002B00D002BEFB6803F00803002B33
:1007780000D003BEFB6803F02003002B06D07B6883
:100788001B691B6803F01003002B0BD1FB6803F0F7
:100798001003002B10D07B681B691B6803F008034B
:1007A800002B09D07B685B69002B05D07B685B69EF
:1007B8007A68926910469847F9687868FFF79EFF4B
:1007C80000BF1037BD4680BD80B500AF0248FFF7B7
:1007D800B7FF00BF80BD00BF7C04002080B500AF1C
:1007E8000248FFF7ADFF00BF80BD00BFA004002096
:1007F80080B500AF0248FFF7A3FF00BF80BD00BF70
:10080800C404002080B500AF0248FFF799FF00BF7D
:1008180080BD00BFE804002080B500AF0248FFF7A4
:100828008FFF00BF80BD00BF0C05002080B500AF62
:100838000248FFF785FF00BF80BD00BF30050020DC
:1008480080B500AF0248FFF77BFF00BF80BD00BF47
:100858005405002080B500AF0248FFF771FF00BFC4
:1008680080BD00BF7805002080B500AF0248FFF7C3
:1008780067FF00BF80BD00BF9C05002080B500AFAA
:100888000248FFF75DFF00BF80BD00BFC005002024
:1008980080B500AF0248FFF753FF00BF80BD00BF1F
:1008A800E405002080B500AF0248FFF749FF00BF0C
:1008B80080BD00BF0806002080B500AF0248FFF7E2
:1008C8003FFF00BF80BD00BF2C06002080B500AFF1
:1008D8000248FFF735FF00BF80BD00BF500600206B
:1008E80080B500AF0248FFF72BFF00BF80BD00BFF7
:1008F8007406002080B500AF0248FFF721FF00BF53
:1009080080BD00BF98060020F8B500BFF8BC08BC41
:100918009E467047F8B500BFF8BC08BC9E467047B5
:10092800400000200000000000000000CD03000887
:0C09380000000000000000007505000831
:0C094400E9010008D9010008AD0100081D
:040950008901000811
:10095400000000002C03002094030020FC0300206E
:100964000000000000000000000000000000000083
:100974000000000000000000000000000000000073
:100984000000000000000000000000000000000063
:100994000000000000000000000000000000000053
:1009A4000000000000000000000000000000000043
:1009B4000000000000000000000000000000000033
:1009C4000000000000000000000000000000000023
:1009D4000000000000000000000000000000000013
:1009E4000000000000000000000000000000000003
:1009F40000000000000000000100000000000000F2
:100A04000E33CDAB34126DE6ECDE05000B000000B6
:100A140000000000000000000000000000000000D2
:100A240000000000000000000000000000000000C2
:100A340000000000000000000000000000000000B2
:100A440000000000000000000000000000000000A2
:100D740000000000000000001C00002030430000C0
:100D8400000C0240000000000B0000003055000081
:100D94000100000078040020000000001060024000
:100DA4000000000000000000000000000C00000033
:100DB40030550000010000009C04002000060000E3
:100DC4002860024000000000000000000000000055
:100DD4000D0000003055000001000000C004002098
:100DE400001000004060024000000000000000000D
:100DF400000000000E00000030550000010000005B
:100E0400E4040020001600005860024000000000C6
:100E140000000000000000000F000000305500003A
:100E2400010000000805002004000000706002407A
:100E3400000000000000000000000000100000009E
:100E440030550000010000002C05002004060000BD
:100E54008860024000000000000000000000000064
:100E64001100000030550000010000005005002072
:100E740004100000A0600240000000000000000018
:100E8400000000002F0000003055000001000000A9
:100E94007405002004160000B86002400000000041
:100EA4000000000000000000380000003056000080
:100EB40001000000980500200000000010640240BA
:100EC40000000000000000000000000039000000E5
:100ED4003056000001000000BC05002000060000A0
:100EE4002864024000000000000000000000000030
:100EF4003A0000003056000001000000E005002028
:100F040000100000406402400000000000000000E7
:100F1400000000003B00000030560000010000000B
:100F2400040600200016000058640240000000007F
:100F340000000000000000003C00000030560000EB
:100F44000100000028060020040000007064024034
:100F54000000000000000000000000004400000049
:100F640030560000010000004C060020040600007A
:100F7400886402400000000000000000000000003F
:100F840045000000305600000100000070060020FB
:100F940004100000A06402400000000000000000F3
:100FA4000000000046000000305600000100000070
:100FB4009406002004160000B864024000000000FB
:080FC400000000000000000025
:0400000508000305E7
:00000001FF
