:020000040800F2
:1000000000000220050300087503000875030008BE
:100010007503000875030008750300080000000060
:100020000000000000000000000000007503000850
:100030007503000800000000750300087503000840
:1000400075030008750300087503000875030008B0
:1000500075030008750300087503000875030008A0
:100060007503000875030008750300087503000890
:100070007503000875030008750300087503000880
:100080007503000875030008750300087503000870
:100090007503000875030008750300087503000860
:1000A0007503000875030008750300087503000850
:1000B0007503000875030008750300087503000840
:1000C0007503000875030008750300087503000830
:1000D0007503000875030008750300087503000820
:1000E0007503000875030008750300087503000810
:1000F0007503000875030008750300087503000800
:1001000075030008750300087503000875030008EF
:1001100075030008750300087503000875030008DF
:1001200075030008750300087503000875030008CF
:1001300075030008750300087503000875030008BF
:1001400075030008750300087503000875030008AF
:10015000750300087503000875030008750300089F
:10016000750300087503000875030008750300088F
:10017000750300087503000875030008750300087F
:08018000750300087503000877
:1001880010B5054C237833B9044B13B10448AFF3C9
:1001980000800123237010BD000000200000000033
:1001A800E408000808B5034B1BB103490348AFF343
:1001B800008008BD0000000004000020E4080008DA
:1001C80052F8043B40F8043B8842F9D3F746000054
:1001D800F1EE103A43F08073E1EE103A704700BF39
:1001E800024B13B1024800F005B870470000000048
:1001F80009020008002301461A46184600F01EB8F6
:1002080038B50A4C0A4D641BA4100AD004F1804387
:10021800013B05EB8305013C55F804399847002C50
:10022800F9D1BDE8384000F05FBB00BF28090008DD
:1002380024090008704700BF704700BF2DE9F84344
:100248002B4D0646286898460F469146FFF7F2FF61
:10025800284B1C68D4F84831002B3DD05A681F2A17
:100268000DDC02F1010C16BB0232C3F804C0286889
:1002780043F82270FFF7E0FF0020BDE8F8831E4B2B
:100288007BB34FF4C870AFF30080034648B3D4F88B
:1002980048210021C0E900214FF0010CC4F84801B1
:1002A8000A46C0F88811C0F88C11002EDCD003EB88
:1002B80082010124C1F88890D3F888019440204332
:1002C800022EC3F88801C1F80881CDD1D3F88C116A
:1002D8000C43C3F88C41C7E704F5A673C4F848314A
:1002E800BCE72868FFF7A8FF4FF0FF30C5E700BF5D
:1002F80068040020FC08000800000000DFF848D06F
:1003080085B0BFF36F8F114811494FF0000201E02B
:1003180040F8042B8842FBD30E480F490F4AFFF7D9
:1003280053FF0F480F49104AFFF74EFF0649A1F146
:100338000400A0F10401016081F30988BFF36F8F05
:1003480000F00EF900BE00000000022000000020AE
:1003580040000020400000209804002028090008E0
:100368000000006000000060800D0008DEBEFFF79E
:10037800FDBF80B483B000AF78607B685B681846C7
:100388000C37BD465DF8047B704780B483B000AF7E
:10039800786039607B689A683B681A437B689A6022
:1003A8007B6818460C37BD465DF8047B704780B4FF
:1003B80083B000AF78607B689B6818460C37BD46F1
:1003C8005DF8047B704780B483B000AF7860012388
:1003D80018460C37BD465DF8047B704780B582B07F
:1003E80000AF786039600C4A7B681A607B6800222D
:1003F8009A607B683A685A607B685B68184600F0C8
:1004080013F97B685B685B684FF0FF329A607B6822
:1004180018460837BD4680BD0809000880B584B075
:1004280000AFF860B96011461A460B46FB711346D7
:10043800BB71FB68B9681846FFF7D0FF064AFB682E
:100448001A60FB68FA791A73FB68BA795A73FB6801
:1004580018461037BD4680BD1409000890B583B012
:1004680000AF786039607B681846FFF7A0FF044644
:100478007B681846FFF77DFF03465B683A682240B1
:100488009A617B6818460C37BD4690BD90B583B01D
:1004980000AF786039607B681846FFF788FF02462E
:1004A8003B6802EA03047B681846FFF762FF0346CD
:1004B8005B685A6962405A617B6818460C37BD46CA
:1004C80090BD80B584B000AF78600023FB607B6886
:1004D8001B781A46FB6893420CD27B685A68FB6803
:1004E800134493F90030184600F084F8FB68013390
:1004F800FB60ECE7002318461037BD4680BD80B589
:1005080084B000AFF860B9607A603B60FB68BA6895
:100518001A60FB683A685A60FB68BA699A603A1DC3
:10052800FB680C3312681A60BB689B69591CBA686F
:100538009161002B0CBF01230023DBB2002B0AD0F2
:10054800FB681B68184600F06FF8FB681B680433EB
:100558001846FFF7B6FFFB6818461037BD4680BD42
:1005680080B58CB002AF0022022363F30102134668
:1005780043F4403207F114000023009300231A4982
:10058800FFF7BDFF00233B6107F1100107F11400DD
:1005980001234FF4504200F06DF938460023002241
:1005A8001249FFF73BFF3A693B4611461846FFF7E9
:1005B800ECFE3B46184600F05DF83B464FF6FF71EF
:1005C8001846FFF74BFF3B464FF6FF711846FFF7FB
:1005D8005DFF00237B627B6A054A9342F3DC00BF20
:1005E8007B6A01337B62F6E7780400206C04002004
:1005F800FF70020080B483B000AF0346FB71FB7943
:1006080003F01F03012202FA03F1064A97F90730A3
:100618005B0942F8231000BF0C37BD465DF8047B28
:10062800704700BF00E100E080B487B000AF786099
:100638007B681B7803F1804303F50E337B617B688D
:100648005B78C3F30403DBB21A46012393403B6192
:100658007B691B683A691340FB607B691A683B69D0
:100668001A437B691A60FB6818461C37BD465DF85B
:10067800047B704780B58CB000AF78600023FB62C4
:100688000023BB6200237B6200233B620023FB61E3
:100698000023BB617B681846FFF76BFE03465B6867
:1006A8003B617B681846FFF782FE78617B681846D5
:1006B800FFF75FFE03469A687B691340002B14BF5F
:1006C80001230023DBB2002B08D07B681846FFF714
:1006D80050FE03469A687B69134071E07B681846B0
:1006E800FFF747FE034699687A690A439A607B696F
:1006F80003F00103002B2ED0BB695B00FB600122D5
:10070800BB6902FA03F31A463B6A13433B620322AE
:10071800FB6802FA03F31A46FB691343FB610122E3
:10072800FB6802FA03F31A46FB6A1343FB627B6811
:100738001B7B1A46BB6902FA03F31A46BB6A1343CA
:10074800BB627B685B7B1A46FB6802FA03F31A46B6
:100758007B6A13437B62BB690133BB617B695B08BE
:100768007B617B69002B00D0C1E7FB69DB43FB6140
:100778003B6ADB433B623B691A68FB691A403B6989
:100788001A603B695A683B6A1A403B695A603B6980
:10079800DA68FB691A403B69DA603B691A68FB6AE8
:1007A8001A433B691A603B695A68BB6A1A433B693A
:1007B8005A603B69DA687B6A1A433B69DA6000234E
:1007C80018463037BD4680BD80B487B000AF78602A
:1007D80039607B681B697B617B6923F0FF033B61A0
:1007E8003B6908331A467B681B7B1344FB603B68F4
:1007F80003F03D037A68527B03FA02F2FB681A6041
:1008080000BF1C37BD465DF8047B704780B584B0D7
:1008180000AFF860B9607A603B60FB681B683D21F7
:100828001846FFF7D1FFFB681B681B693A685A60D6
:10083800FB681B681B69BA689A60FB681B681B69C0
:100848007A68DA60FB685B68002B0ED0FB681B686F
:10085800FA685A61FB681B7B03F00403DBB2002BC8
:1008680001D0082302E0102300E0002318461037C7
:10087800BD4680BD90B585B000AFF860B9607A60BC
:100888003B60FB681B681B6987225A61FB680C3355
:100898001C68391D3B68BA68F868FFF7B7FF03465C
:1008A8002343FA68127BC2F30102D2B2D202134385
:1008B800FA68127BC2F30102D2B2520343EA020180
:1008C800FB681B681A69044B0B4313600023184626
:1008D8001437BD4690BD00BF8704A000F8B500BF1F
:1008E800F8BC08BC9E467047F8B500BFF8BC08BC09
:0408F8009E46704761
:1008FC00400000200000000000000000CF030008B2
:0C090C0000000000000000007D06000854
:0C091800E9010008D9010008AD01000849
:04092400890100083D
:10092800000000002C03002094030020FC0300209A
:1009380000000000000000000000000000000000AF
:10094800000000000000000000000000000000009F
:10095800000000000000000000000000000000008F
:10096800000000000000000000000000000000007F
:10097800000000000000000000000000000000006F
:10098800000000000000000000000000000000005F
:10099800000000000000000000000000000000004F
:1009A800000000000000000000000000000000003F
:1009B800000000000000000000000000000000002F
:1009C800000000000000000001000000000000001E
:1009D8000E33CDAB34126DE6ECDE05000B000000E3
:1009E80000000000000000000000000000000000FF
:1009F80000000000000000000000000000000000EF
:100A080000000000000000000000000000000000DE
:100A180000000000000000000000000000000000CE
:100D480000000000000000001C00002030430000EC
:100D5800000C0240000000003056000001000000B6
:100D680094040020001600005864024000000000AF
:080D7800000000003B00000038
:0400000508000305E7
:00000001FF
